{
  "contractName": "NoteLogic",
  "abi": [
    {
      "inputs": [
        {
          "internalType": "address",
          "name": "noteStorageAddress",
          "type": "address"
        }
      ],
      "payable": false,
      "stateMutability": "nonpayable",
      "type": "constructor"
    },
    {
      "constant": false,
      "inputs": [
        {
          "internalType": "address",
          "name": "_address",
          "type": "address"
        },
        {
          "internalType": "string",
          "name": "note",
          "type": "string"
        }
      ],
      "name": "Write",
      "outputs": [],
      "payable": false,
      "stateMutability": "nonpayable",
      "type": "function"
    },
    {
      "constant": true,
      "inputs": [
        {
          "internalType": "address",
          "name": "_address",
          "type": "address"
        },
        {
          "internalType": "uint256",
          "name": "index",
          "type": "uint256"
        }
      ],
      "name": "Read",
      "outputs": [
        {
          "internalType": "string",
          "name": "",
          "type": "string"
        }
      ],
      "payable": false,
      "stateMutability": "view",
      "type": "function"
    },
    {
      "constant": false,
      "inputs": [
        {
          "internalType": "address",
          "name": "_address",
          "type": "address"
        },
        {
          "internalType": "uint256",
          "name": "index",
          "type": "uint256"
        },
        {
          "internalType": "string",
          "name": "note",
          "type": "string"
        }
      ],
      "name": "Modify",
      "outputs": [],
      "payable": false,
      "stateMutability": "nonpayable",
      "type": "function"
    },
    {
      "constant": true,
      "inputs": [
        {
          "internalType": "address",
          "name": "_address",
          "type": "address"
        }
      ],
      "name": "Length",
      "outputs": [
        {
          "internalType": "uint256",
          "name": "",
          "type": "uint256"
        }
      ],
      "payable": false,
      "stateMutability": "view",
      "type": "function"
    }
  ],
  "bytecode": "0x608060405234801561001057600080fd5b50604051610db1380380610db18339818101604052602081101561003357600080fd5b8101908080519060200190929190505050806000806101000a81548173ffffffffffffffffffffffffffffffffffffffff021916908373ffffffffffffffffffffffffffffffffffffffff16021790555050610d1d806100946000396000f3fe608060405234801561001057600080fd5b506004361061004c5760003560e01c80639b8d0dbf14610051578063c33a7cec146100a9578063e49dcc5514610184578063eee6047f14610269575b600080fd5b6100936004803603602081101561006757600080fd5b81019080803573ffffffffffffffffffffffffffffffffffffffff169060200190929190505050610330565b6040518082815260200191505060405180910390f35b610182600480360360408110156100bf57600080fd5b81019080803573ffffffffffffffffffffffffffffffffffffffff169060200190929190803590602001906401000000008111156100fc57600080fd5b82018360208201111561010e57600080fd5b8035906020019184600183028401116401000000008311171561013057600080fd5b91908080601f016020809104026020016040519081016040528093929190818152602001838380828437600081840152601f19601f820116905080830192505050505050509192919290505050610412565b005b6102676004803603606081101561019a57600080fd5b81019080803573ffffffffffffffffffffffffffffffffffffffff16906020019092919080359060200190929190803590602001906401000000008111156101e157600080fd5b8201836020820111156101f357600080fd5b8035906020019184600183028401116401000000008311171561021557600080fd5b91908080601f016020809104026020016040519081016040528093929190818152602001838380828437600081840152601f19601f8201169050808301925050505050505091929192905050506106c4565b005b6102b56004803603604081101561027f57600080fd5b81019080803573ffffffffffffffffffffffffffffffffffffffff169060200190929190803590602001909291905050506109ec565b6040518080602001828103825283818151815260200191508051906020019080838360005b838110156102f55780820151818401526020810190506102da565b50505050905090810190601f1680156103225780820380516001836020036101000a031916815260200191505b509250505060405180910390f35b60008060009054906101000a900473ffffffffffffffffffffffffffffffffffffffff1673ffffffffffffffffffffffffffffffffffffffff16637d40e1b7836040518263ffffffff1660e01b8152600401808273ffffffffffffffffffffffffffffffffffffffff1673ffffffffffffffffffffffffffffffffffffffff16815260200191505060206040518083038186803b1580156103d057600080fd5b505afa1580156103e4573d6000803e3d6000fd5b505050506040513d60208110156103fa57600080fd5b81019080805190602001909291905050509050919050565b818073ffffffffffffffffffffffffffffffffffffffff163373ffffffffffffffffffffffffffffffffffffffff16146104b4576040517f08c379a000000000000000000000000000000000000000000000000000000000815260040180806020018281038252600b8152602001807f4163636573732064656e7900000000000000000000000000000000000000000081525060200191505060405180910390fd5b60008060009054906101000a900473ffffffffffffffffffffffffffffffffffffffff1673ffffffffffffffffffffffffffffffffffffffff16637d40e1b7856040518263ffffffff1660e01b8152600401808273ffffffffffffffffffffffffffffffffffffffff1673ffffffffffffffffffffffffffffffffffffffff16815260200191505060206040518083038186803b15801561055457600080fd5b505afa158015610568573d6000803e3d6000fd5b505050506040513d602081101561057e57600080fd5b810190808051906020019092919050505090506000809054906101000a900473ffffffffffffffffffffffffffffffffffffffff1673ffffffffffffffffffffffffffffffffffffffff1663cbe6ec9b8583866040518463ffffffff1660e01b8152600401808473ffffffffffffffffffffffffffffffffffffffff1673ffffffffffffffffffffffffffffffffffffffff16815260200183815260200180602001828103825283818151815260200191508051906020019080838360005b8381101561065857808201518184015260208101905061063d565b50505050905090810190601f1680156106855780820380516001836020036101000a031916815260200191505b50945050505050600060405180830381600087803b1580156106a657600080fd5b505af11580156106ba573d6000803e3d6000fd5b5050505050505050565b828073ffffffffffffffffffffffffffffffffffffffff163373ffffffffffffffffffffffffffffffffffffffff1614610766576040517f08c379a000000000000000000000000000000000000000000000000000000000815260040180806020018281038252600b8152602001807f4163636573732064656e7900000000000000000000000000000000000000000081525060200191505060405180910390fd5b60008060009054906101000a900473ffffffffffffffffffffffffffffffffffffffff1673ffffffffffffffffffffffffffffffffffffffff16637d40e1b7866040518263ffffffff1660e01b8152600401808273ffffffffffffffffffffffffffffffffffffffff1673ffffffffffffffffffffffffffffffffffffffff16815260200191505060206040518083038186803b15801561080657600080fd5b505afa15801561081a573d6000803e3d6000fd5b505050506040513d602081101561083057600080fd5b810190808051906020019092919050505090508084106108b8576040517f08c379a000000000000000000000000000000000000000000000000000000000815260040180806020018281038252600c8152602001807f4f7574206f662072616e6765000000000000000000000000000000000000000081525060200191505060405180910390fd5b6000809054906101000a900473ffffffffffffffffffffffffffffffffffffffff1673ffffffffffffffffffffffffffffffffffffffff1663cbe6ec9b8686866040518463ffffffff1660e01b8152600401808473ffffffffffffffffffffffffffffffffffffffff1673ffffffffffffffffffffffffffffffffffffffff16815260200183815260200180602001828103825283818151815260200191508051906020019080838360005b8381101561097f578082015181840152602081019050610964565b50505050905090810190601f1680156109ac5780820380516001836020036101000a031916815260200191505b50945050505050600060405180830381600087803b1580156109cd57600080fd5b505af11580156109e1573d6000803e3d6000fd5b505050505050505050565b606060008060009054906101000a900473ffffffffffffffffffffffffffffffffffffffff1673ffffffffffffffffffffffffffffffffffffffff16637d40e1b7856040518263ffffffff1660e01b8152600401808273ffffffffffffffffffffffffffffffffffffffff1673ffffffffffffffffffffffffffffffffffffffff16815260200191505060206040518083038186803b158015610a8e57600080fd5b505afa158015610aa2573d6000803e3d6000fd5b505050506040513d6020811015610ab857600080fd5b81019080805190602001909291905050509050808310610b40576040517f08c379a000000000000000000000000000000000000000000000000000000000815260040180806020018281038252600c8152602001807f4f7574206f662072616e6765000000000000000000000000000000000000000081525060200191505060405180910390fd5b6000809054906101000a900473ffffffffffffffffffffffffffffffffffffffff1673ffffffffffffffffffffffffffffffffffffffff16636ddbc18085856040518363ffffffff1660e01b8152600401808373ffffffffffffffffffffffffffffffffffffffff1673ffffffffffffffffffffffffffffffffffffffff1681526020018281526020019250505060006040518083038186803b158015610be657600080fd5b505afa158015610bfa573d6000803e3d6000fd5b505050506040513d6000823e3d601f19601f820116820180604052506020811015610c2457600080fd5b8101908080516040519392919084640100000000821115610c4457600080fd5b83820191506020820185811115610c5a57600080fd5b8251866001820283011164010000000082111715610c7757600080fd5b8083526020830192505050908051906020019080838360005b83811015610cab578082015181840152602081019050610c90565b50505050905090810190601f168015610cd85780820380516001836020036101000a031916815260200191505b506040525050509150509291505056fea265627a7a7231582001c53dbf5a8e1c12676b4cba3cf86e1d99ed4c75d0c28f39b5889c64d57fd8b064736f6c634300050c0032",
  "source": "pragma solidity >= 0.4.22 < 0.6.0;\n\nimport \"./NoteStorage.sol\";\n\ncontract NoteLogic\n{\n    NoteStorage noteStorage;\n\n    // Access the storage layer\n    constructor(address noteStorageAddress) public\n    {\n        noteStorage = NoteStorage(noteStorageAddress);\n    }\n\n    // Only user itself can make operations\n    modifier owner(address _address)\n    {\n        require(msg.sender == _address, \"Access deny\");\n        _;\n    }\n\n    // Write a note\n    function Write(address _address, string memory note) public owner(_address)\n    {\n        uint256 length = noteStorage.GetLength(_address);\n        noteStorage.SetNote(_address, length, note);\n    }\n\n    // Read a note\n    function Read(address _address, uint256 index) public view returns (string memory)\n    {\n        uint256 length = noteStorage.GetLength(_address);\n        require(index < length, \"Out of range\");\n\n        return noteStorage.GetNote(_address, index);\n    }\n\n    // Edit a note\n    function Modify(address _address, uint256 index, string memory note) public owner(_address)\n    {\n        uint256 length = noteStorage.GetLength(_address);\n        require(index < length, \"Out of range\");\n\n        noteStorage.SetNote(_address, index, note);\n    }\n\n    // Get the number of notes in total\n    function Length(address _address) public view returns (uint256)\n    {\n        return noteStorage.GetLength(_address);\n    }\n\n    /*\n    // Get the view times for a specific note\n    function Views(address _address, uint256 index) public view returns (uint256)\n    {\n        return noteStorage.GetView(_address, index);\n    }\n    */\n}   ",
  "sourcePath": "/home/leixiao/DAPP/notebook/contracts/NoteLogic.sol",
  "compiler": {
    "name": "solc",
    "version": "0.5.12+commit.7709ece9.Emscripten.clang"
  },
  "schemaVersion": "3.0.19",
  "updatedAt": "2020-01-02T16:35:59.262Z",
  "networkType": "ethereum",
  "devdoc": {
    "methods": {}
  },
  "userdoc": {
    "methods": {}
  }
}